:060000000A128A110E280D
:10000800FE00030EF1000A08F2007F08F3000A124E
:100018008A115F290A128A11112883134130FD00C1
:100028000130FE00B130FF00203084000A128A112E
:100038000B220A128A11DA01DB01DC01DD01DE0183
:10004800DF01E00183010A128A118D2950308312E1
:1000580003136002031C31283228432865306002EC
:10006800031837283828432883160313011701304B
:10007800FF007F0883120313DF07E001F3281A301B
:100088006002031C482849286E2850306002031873
:100098004E284F286E28E001D601D701831203139A
:1000A8005608203E84003030831380000130D60784
:1000B8000318D70A0030D7075708803AFF00803066
:1000C8007F02031D69281F305602031C6C286D2807
:1000D8005228F32865306002031C7328742893287B
:1000E800E001D801D901831203135808203E840087
:1000F8003030831380000130D8070318D90A003044
:10010800D9075908803AFF0080307F02031D8E28E6
:100118001F305802031C912892287728F3280430AE
:100128006002031C98289928AE2809306002031839
:100138009E289F28AE285E08203E84003030831316
:1001480080000130FF007F08DF070130FF007F08D3
:10015800DE07412809306002031CB328B428C128EF
:100168001A3060020318B928BA28C1285E08203E50
:100178008400313083138000A52820305E06031DDB
:10018800C628C728F328DF01E001DE018316031320
:10019800011320300A128A11F4200A128A117708F2
:1001A80083120313DD007608DC007508DB00740891
:1001B800DA0020300A128A11F3210A128A111A3041
:1001C80083120313D5005E30D4006D30D300D30BF7
:1001D800EB28D40BEB28D50BEB28F228F3280800E2
:1001E80083120313CC000030D0000030CF00003061
:1001F800CE000030CD00D101D20183120313510883
:100208004C07C1004108840083130008D03EC20097
:10021800FF3003180030C3004208C4004308C5007B
:10022800C601C7014D08C8004E08C9004F08CA00DA
:100238005008CB0001300310C80DC90DCA0DCB0DF5
:10024800FF3E031D1F294808C40749080318490F22
:100258002E292F29C5074A0803184A0F342935299A
:10026800C6074B0803184B0AC7074708D0004608BB
:10027800CF004508CE004408CD000130D10703184F
:10028800D20A0030D2075208803AFF0080307F023D
:10029800031D502920305102031C532954290129D8
:1002A800831203135008F7004F08F6004E08F500B4
:1002B8004D08F40008008B1C622963298429013049
:1002C800FF007F0883120313E007A630F000F00B4D
:1002D8006B29000083120313061C732974297A29D9
:1002E8005F08031D782979297A298B1006187D293A
:1002F8007E2984295F0803198229832984298B1080
:100308007308FF0072088A00710E8300FE0E7E0ECD
:1003180009000730831603139C008B170B130B1669
:100328008B1001131F3099001812981683120313AB
:10033800981718160130831603138600803087003B
:1003480083120313860187010A128A112A200A12CE
:100358008A11A8290A128A110E2830343034303410
:100368003034303430343034303431343134313462
:100378003134313431343134313430343034303450
:100388003034303430343034303431343134313442
:10039800313431343134313431340034F800F60139
:1003A800F701E72976087807F50075088400000842
:1003B8000A128A111A220A128A110130F607031842
:1003C800F70A0030F70776087807F5007508840003
:1003D80083130008031DF129F229D6290800F90022
:1003E80079080A128A11D2210A128A110D300A12CA
:1003F8008A111A220A128A110A300A128A111A223A
:100408000A128A1108007E088A007F0882000A12F0
:100418008A1107220A128A118000840A04087D06BC
:1004280003190034FF0A0319FE0A0B2AF400831685
:100438000313981C202A212A1B2A740883120313E9
:04044800990008000F
:08400000FF3FFF3FFF3FFF3FC0
:02400E003A3F37
:00000001FF
